:020000020000FC
:0200000029C015
:100050000C94FA01F8940027112722270FEF0DBF07
:1000600001E20EBFDFE1CEEF07E800937A0000E483
:1000700000937C000E94B3030E94A60300E00A9351
:1000800005E00A9300E00A9302E00A93B4D002E18B
:100090000A9305E00A9301E10A9302E00A93ABD0C8
:1000A00008E10A9305E00A9302E20A9302E00A9348
:1000B000A2D006E20A9305E00A9303E30A9302E062
:1000C0000A9399D002E30A9305E00A9304E40A93A1
:1000D00002E00A9390D004E40A9305E00A9305E550
:1000E0000A9302E00A9387D00CE40A9305E00A938E
:1000F00006E60A9302E00A937ED00AE50A9305E039
:100100000A9307E70A9302E00A9375D00AE60A9376
:1001100005E00A9308E80A9302E00A936CD00CE821
:100120000A9305E00A9302E30A9303E00A9363D07B
:1001300002E10A9305E00A9309E90A9302E00A93AF
:100140006BD008E10A9305E00A930AEA0A9302E0F9
:100150000A9362D006E20A9305E00A930BEB0A9336
:1001600002E00A9359D002E30A9305E00A930CECEB
:100170000A9302E00A9350D004E40A9305E00A933C
:100180000DED0A9302E00A9347D00CE40A9305E0D0
:100190000A930EEE0A9302E00A933ED00AE50A9310
:1001A00005E00A930FEF0A9302E00A9335D00AE6BE
:1001B0000A9305E00A9300E10A9303E00A932CD026
:1001C0000E946601002711272227BB24AA24DD24D0
:1001D000EE24FF24332744275527662700E00A939F
:1001E00002E00A9300E00A9302E00A9338D0789480
:1001F0005DD07FD0FDCF0F9309910F9309910F939D
:1002000009910F9309910F930E945C040F910F9134
:100210000F910F910F9108950F931F93FF93EF93F9
:10022000BF93AF930991B02F0991A02F0991F02F9F
:100230000991E02F00271591112319F003951F93C1
:10024000FACF1F911D930A950023D9F710E01D9353
:10025000AF91BF91EF91FF911F910F9108950F936F
:100260001F930E94A60300E00F9300E00F930E94EB
:1002700082030F910F9109910F9319911F930E947F
:1002800069030F910F9101E00F9300E00F930E941B
:1002900082030F910F9109910F9319911F930E945F
:1002A00069030F910F911F910F9108952F931F9341
:1002B0000F9329E01FEF0FEF0A95F1F71A95D9F781
:1002C0002A95C1F70F911F912F9108950F9300E088
:1002D0000093800005E00093810001EE009385000B
:1002E0000CE70093840001E000936F0078940F9175
:1002F00008950F931F932A9300917A00006400934E
:100300007A0000917A000074E1F700917800109172
:10031000790020E0103021F4023310F421E026C0EF
:10032000103021F41A3F10F422E020C0103011F4F4
:1003300023E01CC0113021F4023C10F423E016C06D
:10034000113011F424E012C0123021F40A3810F4F4
:1003500024E00CC0123011F425E008C0133021F461
:10036000023510F425E002C020E000C019912223DC
:10037000F1F5212F222311F4000038C0A3942A950F
:10038000222341F40D2D013019F001E0D02E2EC0B2
:10039000DD242CC02A95222351F4DD24EF2CF39484
:1003A0000F2D0A95003110F1FF24F3941FC02A95F8
:1003B000222349F4DD24FE2CEA940E2D0130B4F4FE
:1003C00000E1E02E13C02A95222341F40D2D0230C6
:1003D00019F002E0D02E0AC0DD2408C00D2D033034
:1003E00018F403E0D02E02C0DD2400C022271F91A4
:1003F0000F9108950F931F932F9390913F0001EE5B
:10040000009385000CE70093840001E0B0260D2DD9
:10041000002319F431D00C9431020A95002361F4C1
:10042000BB2041F0EF2CF3941F2D1A95103110F0E2
:10043000FF24F39421D015C00A95002331F42FD066
:1004400031E243E052E363E00CC00A95002319F463
:1004500013D0D39406C030E042E050E062E0DA947A
:1004600000C05A936A933A934A93F9DE90933F00FF
:100470002F911F910F9118951F920F920F9330E0BB
:1004800042E050E062E001E1E09E300D410D01E10B
:10049000F09E500D610D0F910F901F900895BF9326
:1004A000AF931F932F93B3E0A1E21AE21D931AE2D8
:1004B0001D9310E21D9320E31A2D143618F41A3000
:1004C00050F40EC0239514561436E0F72D9320E314
:1004D0001A3008F42D9323951A501A30E0F72D9313
:1004E00020E3210F2D9310E21D931AE21D931AE2CF
:1004F0001D9310E01D932F911F91AF91BF9108950F
:100500002A2A2A2A2A2A2A2A2A2A2A2A2A2A2A2A4B
:100510002A00CCD9B2B9D400416E206F6C6420702F
:100520006F6E642E0000B6DCBDDE20C4CBDEBAD117
:100530000000412066726F67206A756D70732069D4
:100540006E2E0000D0BDDEC9B5C4000057617465D1
:100550007220736F756E642E0000202D204D617423
:1005600073756F20426173686F002020202028314E
:100570003634342D313639342900426C616E6B20AB
:100580006F6E20707572706F7365210042757474A0
:100590006F6E732050726573736564000E94B303BD
:1005A00003E00F9303E40F9308E00F930AEE0F9319
:1005B0000E945C040F910F910F910F9103E00F9334
:1005C00003E40F930E9469030F910F910C94E602CC
:1005D0000C94E8020F937F938F93009132000F7D6C
:1005E00074FD00620093340000912C00077F75FDBC
:1005F000086000932E0000910001077F76FD0860DF
:1006000000930201009100010F7E77FD00610093CD
:1006100002010091000100640093020181E00E9448
:100620003804009100010F7B009302018F917F91AC
:100630000F9108957F938F930F93DF93CF93DEB73E
:10064000CDB779850E94EA0282E30E943804729550
:100650000E94EA0282E30E943804CF91DF910F9159
:100660008F917F9108950F938F937F93DF93CF9313
:10067000DEB7CDB77985009100010F7D00930201AF
:100680007F930E941A037F91743018F482E00E94D5
:100690004204CF91DF917F918F910F9108950F9335
:1006A0007F93DF93CF93DEB7CDB7788500910001BC
:1006B0000062009302017F930E941A037F910091D0
:1006C0006503039500936503CF91DF917F910F91AF
:1006D00008950F931F93DF93CF93FF93EF93DEB7AC
:1006E000CDB7FB85EA851191103029F01F930E9448
:1006F0004F031F91F8CFEF91FF91CF91DF911F91A1
:100700000F9108950F931F93DF93CF93DEB7CDB76B
:100710000885198511301CF011E00C9492030F30FC
:100720000CF00FE01093640300936503113019F48B
:1007300010EC0C949C0310E8010F0F930E943303FC
:100740000F91CF91DF911F910F9108950F9301E0C9
:100750000F930E9433030F910027009364030093CB
:1007600065030F9108950F937F938F93009133004A
:10077000006200933300009132000F7D009334003B
:1007800000912D00086000932D0000912C00077F40
:1007900000932E0000910101086000930101009177
:1007A0000001077F009302010091010100610093A5
:1007B0000101009100010F7E0093020100910101EF
:1007C000006200930101009100010F7D009302017E
:1007D00000910101006400930101009100010F7B71
:1007E000009302018FE00E94420485E00E944204CF
:1007F00070E30E94EA0285E00E94420470E30E94D6
:10080000EA0257E08FE00E9442045A95D9F770E35C
:100810000E94EA0282E30E94380470E20E94EA0227
:1008200082E30E94380408E20F930E9433030F9181
:1008300008E00F930E9433030F9101E00F930E9491
:1008400033030F9182E00E94420406E00F930E945E
:1008500033030F910CE00F930E9433030F91002795
:1008600000936403009365038F917F910F91089526
:100870000F938F9305E00A95F1F78A95D9F78F9139
:100880000F9108950F931F938F93DF93CF930DEFE5
:10089000809F012D0295007FD02F002D0295102FF3
:1008A000007F1F70C02FD12B2197F1F7CF91DF91DF
:1008B0008F911F910F9108950F93FF93EF93BF9323
:1008C000AF93DF93CF93DEB7CDB7EB85FC85AD85D6
:1008D000BE85059100300D93E1F7CF91DF91AF9187
:1008E000BF91EF91FF910F91089548656C6C6F2C4B
:0808F00020576F726C642100B7
:00000001FF
